:1000000002148B122008121C30223202128F900030
:0A00100000E0FFEF75F00384FF220B
:0E001B00020058902030E493FE740193FF22FF
:0E002B00021341902034E493FE740193FF22EF
:07003B00021B90121EA2221D
:1000430002000AE4FFEFC395295009120945120A79
:100053003A0F80F122C28F32021DD3BB010CE5821D
:1000630029F582E5833AF583E0225006E92582F8F3
:10007300E622BBFE06E92582F8E222E58229F58223
:10008300E5833AF583E49322BB010689828A83F0F0
:10009300225002F722BBFE01F322F8BB010DE582D9
:1000A30029F582E5833AF583E8F0225006E92582B3
:1000B300C8F622BBFE05E92582C8F222EF8DF0A423
:1000C300A8F0CF8CF0A428CE8DF0A42EFE22BC0085
:1000D3000BBE0029EF8DF084FFADF022E4CCF87560
:1000E300F008EF2FFFEE33FEEC33FCEE9DEC98406F
:1000F30005FCEE9DFE0FD5F0E9E4CEFD22EDF8F50B
:10010300F0EE8420D21CFEADF075F008EF2FFFED6A
:1001130033FD4007985006D5F0F222C398FD0FD562
:10012300F0EA22C2D5EC30E709B2D5E4C39DFDE481
:100133009CFCEE30E715B2D5E4C39FFFE49EFE12AC
:1001430000D1C3E49DFDE49CFC80031200D130D5B3
:1001530007C3E49FFFE49EFE22C5F0F8A3E028F066
:10016300C5F0F8E582158270021583E038F022BBF2
:10017300010A89828A83E0F5F0A3E022500687F022
:1001830009E71922BBFE07E3F5F009E31922898287
:100193008A83E493F5F074019322BB0110E582296D
:1001A300F582E5833AF583E0F5F0A3E0225009E90F
:1001B3002582F886F008E622BBFE0AE92582F8E2EA
:1001C300F5F008E222E5832AF583E993F5F0A3E944
:1001D3009322BB010DC58229C582C5833AC583021B
:1001E300015C5011C58229F808E5F026F618F5F0F0
:1001F300E58236F622BBFE11C58229F808E225F016
:10020300F5F0F218E23582F222F8E58229F582E56B
:10021300832AF58374019325F0F5F0E4933822BB28
:10022300010A89828A83F0E5F0A3F0225006F709D8
:10023300A7F01922BBFE06F3E5F009F31922F8BB78
:100243000111E58229F582E5833AF583E8F0E5F0CB
:10025300A3F0225009E92582C8F608A6F022BBFEC6
:1002630009E92582C8F2E5F008F222E88FF0A4CC70
:100273008BF0A42CFCE98EF0A42CFC8AF0EDA42CCA
:10028300FCEA8EF0A4CDA8F08BF0A42DCC3825F099
:10029300FDE98FF0A42CCD35F0FCEB8EF0A4FEA984
:1002A300F0EB8FF0A4CFC5F02ECD39FEE43CFCEA91
:1002B300A42DCE35F0FDE43CFC2275F008758200D8
:1002C300EF2FFFEE33FECD33CDCC33CCC58233C518
:1002D300829BED9AEC99E58298400CF582EE9BFEA9
:1002E300ED9AFDEC99FC0FD5F0D6E4CEFBE4CDFA04
:1002F300E4CCF9A88222B800C1B90059BA002DECA8
:100303008BF084CFCECDFCE5F0CBF97818EF2FFF3F
:10031300EE33FEED33FDEC33FCEB33FB10D70399E7
:100323004004EB99FB0FD8E5E4F9FA227818EF2F94
:10033300FFEE33FEED33FDEC33FCC933C910D705B3
:100343009BE99A4007EC9BFCE99AF90FD8E0E4C9D2
:10035300FAE4CCFB2275F010EF2FFFEE33FEED3302
:10036300FDCC33CCC833C810D7079BEC9AE899402F
:100373000AED9BFDEC9AFCE899F80FD5F0DAE4CD91
:10038300FBE4CCFAE4C8F922CFF4CFCEF4CECDF41B
:10039300CDCCF4CC22EB9FF5F0EA9E42F0E99D42EE
:1003A300F0E89C45F022E8600FECC313FCED13FD6D
:1003B300EE13FEEF13FFD8F122E8600FEFC333FF14
:1003C300EE33FEED33FDEC33FCD8F122ECF0A3ED7C
:1003D300F0A3EEF0A3EFF022A8828583F0D083D0C0
:1003E300821203F21203F21203F21203F2E473E431
:1003F30093A3C583C5F0C583C8C582C8F0A3C583CD
:10040300C5F0C583C8C582C822A42582F582E5F05C
:100413003583F58322BB010DE58229F582E5833A15
:10042300F5830204D95007E92582F80204C7BBFE0D
:1004330007E92582F80204EBE58229F582E5833A90
:10044300F5830204FDBB0120E58229F582E5833AA9
:10045300F583D0F0D0E0F8D0E0F9D0E0FAD0E0FBBB
:10046300E8C0E0C0F00204E25018E92582F8D08326
:10047300D082D0E0F9D0E0FAD0E0FBC082C08302A2
:1004830004D0BBFE18E92582F8D083D082D0E0F9EE
:10049300D0E0FAD0E0FBC082C0830204F422D08310
:1004A300D082F8E4937012740193700DA3A393F8B0
:1004B300740193F5828883E4737402936860EFA3F5
:1004C300A3A380DFE6FB08E6FA08E6F922EBF608C9
:1004D300EAF608E9F622E0FBA3E0FAA3E0F922EB4F
:1004E300F0A3EAF0A3E9F022E2FB08E2FA08E2F95A
:1004F30022EBF208EAF208E9F222E493FB74019397
:10050300FA740293F922900052EFF0E490005AF04B
:10051300900052E0900001120939120A8C900053A6
:10052300F0A3EFF0E47F01FEFDFC900052E0F9F848
:100533001203BC8F288E278D268C25AF01121D53E5
:10054300900058EEF0A3EFF012098C4005120AA0B8
:100553008005E4900055F0900055E06401600302CB
:1005630006BB900052E0FF24071209A1E0C394FAEE
:1005730074809480500612099EE004F0120A63FC12
:10058300E4FBFAF9F8C312039860030206A890008B
:1005930000E0900057F012201AEF6030E49000550D
:1005A300F0A3F01209D9501812099EE0C394017404
:1005B3008094804006900055E004F0120A8580E3A1
:1005C300120A0C4007900057E0240FF0900052E00D
:1005D30024071209A1120AC050030206A8E49000DE
:1005E30055F0121FF3EF705E900056F01209D950C8
:1005F30022900052E06F601612000E900056E02425
:10060300071209A1E0C39F4005120AA08005120A40
:100613008580D912201AEF3395E04F70639000550F
:10062300E0705DA3F01209D95056900052E06F605C
:100633001012000E9000561209F3E0C39F4002808F
:100643003C120A8580DF12201AEF3395E04F703099
:10065300900057F0900056F01209D9501812099ED5
:10066300E0C39402748094804006900057E004F045
:10067300120A8580E3900057120A0F4003120AA062
:10068300900055E064017002D200E5244528FFE59F
:10069300234527FEE5224526FDE52145258F248EAA
:1006A300238D22F521900052E0FF240B12094FE421
:1006B300F0A31209E60208DE900052E0FF121D9338
:1006C300900053E0FCA3E0FDD31209804008120917
:1006D300F0E004F0800B900065E004F01209F0E410
:1006E300F0120A96C3E49FFBE49EFAC3ED9BEA1261
:1006F30009824066D312098D5060120A2DF583E4F6
:100703001209E61209B76003020832900053E0FEB3
:10071300A3E0FF900052E09000091209D3EE8FF09E
:1007230012015C12002E12096E40091209A9E47528
:10073300F001801912002EC3E49FFFE49EFE12090C
:100743006E40030208321209A974FFF5F012015C2E
:10075300120964E4F0A3F0020832120A96C3E49F7C
:10076300FFE412098A40030207ED120A2D1209E27F
:10077300F583E4F0740B2FF582E43400F583E0FD98
:10078300902050E493FFED8FF084E5F0704B9020C0
:100793005193FEEF8EF0A4FFC3ED120A7B9000523B
:1007A300E04010120A32F583E4F0D20190001604FF
:1007B300F080261209AEC083C082E0FEA3E0FF9062
:1007C3000012E0A2E713FD3395E0FCC3EF9DFFEEBB
:1007D3009CD082D083F0A3EFF0900052E0FF900012
:1007E3005EE06F704A74FFF08045120A96D31209D7
:1007F3008D403C900052E0120A321209B770301259
:100803000AA71209E2F583E064207023120AA7F510
:1008130083E4F0900012E0A2E713A2E713FD3395FF
:10082300E0FC75F002EF1209B1EC8DF012015C12DD
:100833000A634D4E4F70030208EA900058E0FCA390
:10084300E0FDAE047802CEA2E713CE13D8F8FFC3BF
:10085300ED9FFFEC12098A40030208E31209FEE050
:1008630004F0121FFE900057EFF0E4900056F012D0
:1008730009D9501812099EE0C394017480948040F2
:1008830006900055E004F0120A8580E3120A0C403A
:1008930008900000E0900057F0900052E0FB120A2D
:1008A30002120AC0500302093474152B120A04E41D
:1008B300F0AF28AE27AD26AC2512038BE5245FFFEE
:1008C300E5235EFEE5225DFDE5215C8F248E238D0D
:1008D30022F52174072BF582E43400F583E4F0223A
:1008E3001209FEE014F022900052E024071209A13D
:1008F3001209B97008900052E0FF1216C4E52914DA
:10090300FF900052E06F7029900065E0C395294085
:1009130020E4900056F01209D9500E12099EE060AF
:1009230003120AA0120A8580ED900055E07002C2FE
:100933000022E0900013FF75F00212040CE0FCA308
:10094300E0FDEF90000575F00202040CF582E4343B
:1009530000F583E4F074152FF582E43400F583E4A5
:10096300F0900009EF75F00202040C900052E0755C
:10097300F00290000912040CE0FCA3E0C39FEE64B4
:1009830080F8EC648098229EFEC3900054E09FEEB2
:100993006480F8900053E06480982274072FF582F6
:1009A300E43400F58322900052E0FF75F0029000DA
:1009B3000102040CF583E4F0FFFEFDFCAB24AA2343
:1009C300A922A821C3020398900053E0FD900013CD
:1009D30075F00202040C900056E0FFC3952922F53E
:1009E30083E004F074032FF582E434002290005274
:1009F300E02408F582E43400F58322900052E024D9
:100A030015F582E43400F58322900055E0C3940386
:100A130074809480227D0A1200D1AD037C00120001
:100A2300BF90005BE0FD90000122900052E0FF24A4
:100A33000BF582E4340022E0FCA3E0FD75F002EF45
:100A430090001312040CECF0A3EDF0227E00900052
:100A53005FE0FCA3E0FD1200BF8EE78FE67F02227A
:100A6300E5245528FFE5235527FEE5225526FDE518
:100A730021552522A4FFE0C39FE5F06480F874802C
:100A83009822900056E004F022E0FEA3E0C39DFF0D
:100A9300EE9C22900012E0FF3395E0FE2290005579
:100AA3007401F022900052E0FF2403F582E4340045
:100AB30022900012E0FB3395E0FAFEEB22E0FF9078
:100AC3000057E0FEEFC39E229FEE6480F8EA648045
:100AD3009822900051E0FF90005DE0229000AAEB85
:100AE300F0A3EAF0A3E9F07B017A00792CC003C0FC
:100AF30002C0019000AAE0FBA3E0FAA3E0F9900092
:100B030017E0FF7E00E92FF9EA3EFA90008DEBF043
:100B1300A3EAF0A3E9F0D001D002D0031210E9EF69
:100B23004E7003020C82900017E0FFEF1204A10B3A
:100B33003F000B70010BA20200000BD49000AAE04F
:100B4300FBA3E0FAA3E0F9900017E0FF8F8275831F
:100B53000012005EFF7E00EF64AA4E70089000173B
:100B6300E004F08082900017E4F0020AEA9000AA01
:100B7300E0FBA3E0FAA3E0F9900017E0FF8F827592
:100B8300830012005EFF7E00EF64554E70099000F3
:100B930017E004F0020AEA900017E4F0020AEA9070
:100BA30000AAE0FBA3E0FAA3E0F9900017E0FF8FAF
:100BB3008275830012005EFF7E00EF64074E7009AA
:100BC300900017E004F0020AEA900017E4F0020A2A
:100BD300EA900017E004F09000AAE0FBA3E0FAA378
:100BE300E0F975820275830012005EFF900017E042
:100BF300FEEEC39F5015900017E0FF7E00D3EF94E5
:100C030007EE648094805003020AEA9000AAE0FB96
:100C1300A3E0FAA3E0F9C003C002C0019000AAE078
:100C2300FBA3E0FAA3E0F975820275830012005E6C
:100C3300FFEFFD7C00D001D002D0031218B6900064
:100C430017E0FEEEFD7C00ED24FFFDEC34FFFC908D
:100C530000AAE0FBA3E0FAA3E0F98D828C831200E3
:100C63005EFEEFB5060E9000AAE0FBA3E0FAA3E058
:100C7300F9121744900017E4F0020AEA020AEA2282
:100C8300751000751800751700751600751500129C
:100C930020205003020DB7121E498F148E138D129C
:100CA3008C11750F00E50FC39529504DAF14AE138A
:100CB300AD12AC1178011203A98F148E138D128C0F
:100CC3001130D7317F017E007D007C00AB0F7404AF
:100CD3002BF582E43400F583E0F9A8011203BCE5A7
:100CE300184FF518E5174EF517E5164DF516E515EA
:100CF3004CF5150510050F80ACAF107E00C3EF94C3
:100D030002EE64809480401ED200AF107E00C3EFD9
:100D13009403EE6480948040051220238008121F00
:100D2300F3EF6002C2002000307F007E007D007C74
:100D330000AB18AA17A916A815C312039860109040
:100D43000011E004F07006900010E004F08024909D
:100D53000010E4F0A3E4F0801A90000EE004F070B9
:100D63000690000DE004F075180075170075160065
:100D730075150012001E900010E0FCA3E0FDC3ED0A
:100D83009FEC9E400B122023900010E4F0A3E4F0AC
:100D930090000DE0FEA3E0FFD3EF942CEE9401400E
:100DA300201220239000167401F090000DE4F0A3AC
:100DB300E4F0800D902036E493FE740193FF120D4E
:100DC300CDAF18AE17AD16AC1522900051EFF090D1
:100DD3000063120A0F403EE4F0900016E0702B907F
:100DE3000052F0900052E0C39529501EE0FF120913
:100DF300D0E0FCA3E0FD75F002EF1209B1ECF0A323
:100E0300EDF0900052E004F080D9121E0EC201E40E
:100E1300900016F02290005DE004F0120AD5B507A9
:100E230008120046E490005EF0120AD5D39F5003E7
:100E3300020EFEE4900052F0900052E0C395295058
:100E43007A120935120A8CAD07FC900016E0702E59
:100E5300120AB47802C333CE33CED8F9FFD3ED12DE
:100E630009804046E49BFFE49AFEEF7802C333CE49
:100E730033CED8F9FFC3ED120980502E803D120AFC
:100E8300B47803C333CE33CED8F9FFD3ED12098040
:100E93004018E49BFFE49AFEEF7803C333CE33CECE
:100EA300D8F9FFC3ED1209804011900052E0FF1200
:100EB3000FF9900052E004F0020E3B900052E0B5AF
:100EC300290690005EE004F0900051E0FD75F00803
:100ED30090005D120A774023E4F0C200900063E0C3
:100EE30004F0ED75F00490005E120A77400DE49073
:100EF3000063F0121F79121E0EC20122900066EBEE
:100F0300F0A3EAF0A3E9F0900069ECF0A3EDF07B25
:100F1300007A007900C003C002C001900066E0FBC4
:100F2300A3E0FAA3E0F9D082D083D0E06B7008E9A4
:100F330065827003EA65837003020FF890006BE02B
:100F4300FBA3E0FAA3E0F9C003C002C0019000666E
:100F5300E0FBA3E0FAA3E0F97582087583001204AD
:100F630048900066E0FBA3E0FAA3E0F975820875F8
:100F73008300120418C003C002C0017B007A007909
:100F830000D082D083D0E06B7008E965827003EAF9
:100F930065836061900069E0FEA3E0FF900066E076
:100FA300FBA3E0FAA3E0F9758204758300EE8FF0EA
:100FB300120241900066E0FBA3E0FAA3E0F9E475B6
:100FC300F000120222900066E0FBA3E0FAA3E0F92E
:100FD300758202758300E475F00012024190006689
:100FE300E0FBA3E0FAA3E0F9758206758300E475DC
:100FF300F00012024122900053EFF0F9120935126A
:101003000A8C900054F0A3EFF0AF01121D53AD070B
:10101300AC06900054E0FEA3E0FFD39DEC6480F89F
:10102300EE6480985014C3E49DFBE49CFAC3EF9BE9
:10103300EA6480F8EE648098500E900053E0FF124B
:101043000946120A3A0210DDECA2E713FEED13FF84
:10105300900054E0FAA3E0FBD3120ACB5016ECA2A3
:10106300E713FEED13FFC3E49FFFE49EFEC3EB1201
:101073000ACB50231209CBE0FAA3E0FBEAC313FE29
:10108300EB13FFC3EB9FFBEA9EFAED120946E0C3A5
:1010930013FEA3E01380321209CBE0FAA3E0FBAE08
:1010A300027803CEC313CE13D8F9FFC3EB9FFBEA39
:1010B3009EFA75F002ED90000512040CE0FEA3E029
:1010C3007803CEC313CE13D8F92BFFEA3EFE90006C
:1010D30053E01209D0EEF0A3EFF09000531209355C
:1010E300ECF0A3EDF02290008AEBF0A3EAF0A3E981
:1010F300F090008AE0FBA3E0FAA3E0F9121D0DEFE4
:101103004E6006E47E007F002290008AE0FBA3E0AD
:10111300FAA3E0F9758208758300120418C003C0AE
:1011230002C00190008AE0FBA3E0FAA3E0F9758214
:101133000275830012019DFFAEF0D001D002D003EF
:101143008F828E8312005EFF90008DE0FBA3E0FA96
:10115300A3E0F9EF12008B90008AE0FBA3E0FAA36F
:10116300E0F975820275830012019DFFAEF0EF2452
:1011730001FFEE3400FE90008AE0FBA3E0FAA3E057
:10118300F975820475830012019DFDACF0120126EE
:1011930090008AE0FBA3E0FAA3E0F975820275836D
:1011A30000EC8DF012024190008AE0FBA3E0FAA369
:1011B300E0F975820675830074FF75F0FF1201D59F
:1011C3007E007F0122900094EBF0A3EAF0A3E9F004
:1011D300900097EDF0900094E0FBA3E0FAA3E0F910
:1011E300121A15EF4E6006E47E007F0022900097EE
:1011F300E0FF900094E0FBA3E0FAA3E0F975820816
:10120300758300120418C003C002C001900094E06B
:10121300FBA3E0FAA3E0F9120172FDACF0D001D018
:1012230002D0038D828C83EF12009D900094E0FB2B
:10123300A3E0FAA3E0F975820475830012019DFD12
:10124300ACF0900094E0FBA3E0FAA3E0F912017282
:10125300FFAEF0EF2401FFEE3400FE1201269000F2
:1012630094E0FBA3E0FAA3E0F9EC8DF012022290E4
:101273000094E0FBA3E0FAA3E0F97582067583000E
:10128300E475F0011201D57E007F0122C0E0C0F0B9
:10129300C083C082C0D075D000C000C001C002C0EE
:1012A30003C004C005C006C007758A20758CD190A1
:1012B3000046E0FCA3E0FDA3E0FEA3E0FF7B017A90
:1012C3000079007800EF2BFFEE3AFEED39FDEC38A4
:1012D300FC9000461203CF900023E0FF7E00C3E49E
:1012E3009FFFE49EFEEF25E0FFEE33FE900023E038
:1012F300FD7C00EF2DFFEE3CFEEF24FFFFEE3400FC
:10130300FE900040E475F00112015CADF0FCD3EDFA
:101313009FEC9E400E900040E4F0A3E4F090005058
:101323007401F0D007D006D005D004D003D002D08A
:1013330001D000D0D0D082D083D0F0D0E032C0E052
:10134300C0F0C083C082C0D075D000C000C001C04F
:1013530002C003C004C005C006C007C2CF90004A44
:10136300E0FCA3E0FDA3E0FEA3E0FF7B017A0079AC
:10137300007800EF2BFFEE3AFEED39FDEC38FC90E0
:10138300004A1203CF900042E475F00112015CAFF2
:10139300F0FED3EF94C7EE9400400E900042E4F0C9
:1013A300A3E4F090004F7401F0900023E0FF7E006F
:1013B300900044E475F00112015CADF0FCD3ED9FA5
:1013C300EC9E400E900044E4F0A3E4F090004E74D1
:1013D30001F0D007D006D005D004D003D002D0014D
:1013E300D000D0D0D082D083D0F0D0E0329000842F
:1013F300EEF0A3EFF053A1FC43A203438FC0759D0E
:1014030050900084E0FEA3E0FFE4FCFD7B407A42C1
:10141300790F780012026E900086E0F8A3E0F9A33A
:10142300E0FAA3E0FB1202F98F9E900084E0FEA392
:10143300E0FFE4FCFD7B407A42790F780012026EF4
:10144300900086E0F8A3E0F9A3E0FAA3E0FB120220
:10145300F978081203A98F9543A901D2AF7B017ACA
:1014630000792CC003C002C0017B017A0079379058
:10147300006BEBF0A3EAF0A3E9F0D001D002D003B4
:101483007D097C00120EFF2278FFE4F6D8FD900060
:10149300007F007E03E4F0A3DFFCDEFA75812902FE
:1014A30014E0021EC9E493A3F8E493A34003F68077
:1014B30001F208DFF48029E493A3F85407240CC84D
:1014C300C333C4540F4420C8834004F456800146F8
:1014D300F6DFE4800B010204081020408090192DF0
:1014E300E47E019360BCA3FF543F30E509541FFE23
:1014F300E493A360010ECF54C025E060A840B8E494
:1015030093A3FAE493A3F8E493A3C8C582C8CAC516
:1015130083CAF0A3C8C582C8CAC583CADFE9DEE7A8
:1015230080BE90000FE0FFEF20E7030215B69000A6
:101533000FE0FFEF547FFF90000FEFF0120C83904A
:1015430000181203CF900018E0FCA3E0FDA3E0FE17
:10155300A3E0FFEF5401FFEE5400FEED5400FDEC59
:101563005400FCEC4D4E4F6004D203801D30031A2F
:10157300C20390001DE0FF7E00EF64014E70047F04
:101583000080027F0190001DEFF0121B3A7B017A6D
:1015930000791E120ADF121F987F01121F39EF60B4
:1015A300097B017A007925121BE5300203121CC561
:1015B30012201D22C2AF75FEC1AFFFD2AFEF543070
:1015C300FD7C0070047918801CED64104C70047964
:1015D3000C8012ED64204C700479068008ED6430B1
:1015E3004C70027902E924FA601724FA601F24F48C
:1015F30060272416702E900053E4F0A37496F080B5
:10160300259000537401F0A374C2F0801990005325
:101613007403F0A37484F0800D9000537407F0A357
:1016230004F08002E4F9900053E07002A3E0600C40
:1016330090005374FFF5F012015C80EA2275FE8579
:1016430043FF20D2AFC201E4900064F090000FF09A
:10165300121AE1E4FF121C7BEF2401FDE433FC7E4C
:101663000B7FB81200D190005FEEF0A3EFF0E4FF20
:10167300121FB5120A4F121C7BEFC454F0FEC006B2
:10168300E4FF121C7BD0E02FF5E17F03121C7BE506
:10169300E254804FF5E27F04121C7BEF6008E5E221
:1016A30054804480F5E27F01121C7B8FE3121E0EEF
:1016B30043A910900004E04480F5E812183D021F8E
:1016C3007990005BEFF0121FD190005CEFF01217DE
:1016D30039900060E025E0FF90005FE033FE7C007E
:1016E300120A18120949E0FAA3E0C39FEA9E5009BF
:1016F30090005CE0603F14802D12173990005FE08A
:10170300FEA3E0FF7C007D071200BF120A18120936
:1017130068E0FAA3E0D39FEA9E401A90005CE0FFE2
:10172300647E6011EF04FF740C2DF582E43400F540
:1017330083EFF0D2012290005BE0FF121FB5EFFBB5
:10174300229000A7EBF0A3EAF0A3E9F09000A7E052
:10175300FBA3E0FAA3E0F975820475830012005E2F
:10176300FFEF540FFF7E00EF4E700775D600C202E5
:10177300804B9000A7E0FBA3E0FAA3E0F975820495
:1017830075830012005EFFEF540FFF7E00EF6401CC
:101793004E700775D664C20280239000A7E0FBA3B6
:1017A300E0FAA3E0F975820475830012005EFFEF8F
:1017B300540FFF7E00EF64024E7002D2027F0022BC
:1017C300C206900064E0120946E5E5F0A3E5E4F003
:1017D300900064E004F0E0C39529400BE4F090002E
:1017E3000FE04480F08002D2067F02121C7BEFC41C
:1017F30054F0F5E1900064E0FF121FB5120A4F1296
:101803001C7BEFC454F0FEC006E4FF121C7BD0E047
:101813002FF5E1900064E0FF121FD1E5E254804F01
:10182300F5E2900064E02404F582E43400F583E0FB
:101833004480F5E8300602D2EE22902052E49390E1
:101843000051F0121F14E4900052F0900052E0FF98
:10185300C395295021E0FE120946E0FCA3E0FD7583
:10186300F002EE1209B1ECF0A3EDF01216C49000F1
:1018730052E004F080D5900051E0FF14F0EF70C304
:10188300120046121FE8900051EFF0121F14E4906B
:101893000052F0900052E0FFC39529500B120FF94C
:1018A300900052E004F080EB900051E0FF14F0EF61
:1018B30070D92290007DEBF0A3EAF0A3E9F0900049
:1018C30080ECF0A3EDF0900083E4F09000827401CB
:1018D300F0900080E0FEA3E0FFEF24FFFFEE34FF73
:1018E300FE900082E0FD7C00C3ED9FEE6480F8EC87
:1018F300648098502790007DE0FBA3E0FAA3E0F911
:10190300900082E0FF8F8275830012005EFF9000DB
:1019130083E02FF0900082E004F080B5900083E034
:10192300FFEFF404FFEF54FFFF22C1044900370027
:1019330000000000000000004100500041004F0083
:1019430041004E004400460000000044004A0000ED
:1019530000004200400000420042000042004400F8
:1019630000410016004100630047001E0000000014
:10197300000000C103C102470025AA880700000038
:101983000041001D0041001C00410017004100B44C
:1019930064C1050048006E000000000000000090D4
:1019A3000076EBF0A3EAF0A3E9F0900079ECF0A362
:1019B300EDF090007CE4F090007B7401F0900079EE
:1019C300E0FEA3E0FFEF24FFFFEE34FFFE90007B79
:1019D300E0FD7C00C3ED9FEE6480F8EC64809850DA
:1019E30027900076E0FBA3E0FAA3E0F990007BE008
:1019F300FF8F8275830012005EFF90007CE02FF062
:101A030090007BE004F080B590007CE0FFEFF404ED
:101A1300FF2290009EEBF0A3EAF0A3E9F090009E72
:101A2300E0FBA3E0FAA3E0F97582047583001201D9
:101A33009DFDACF090009EE0FBA3E0FAA3E0F91259
:101A43000172FFAEF0EF2401FFEE3400FE12012617
:101A530090009EE0FBA3E0FAA3E0F9758202758390
:101A63000012019DFFAEF0EDB50709ECB506057E4A
:101A7300007F0122E47E007F0022750800750900C3
:101A8300750D01750C00750B00750A00750800AF24
:101A9300087E00C3EF941FEE64809480503CAF0D2A
:101AA300AE0CAD0BAC0A78011203A98F0D8E0C8D11
:101AB3000B8C0A30D720AF0974042FF582E434006D
:101AC300F583E508F00509AF097E00C3EF9401EE45
:101AD300648094805004050880B5850929229020EC
:101AE3002CE493FE740193FF900000EFF0902046E6
:101AF300E493FE740193FF900012EFF0121A7D75C8
:101B03000E00E50EC395295025AF0EEF75F008A41E
:101B1300244CF582E43420F583E493FFAE0E740C79
:101B23002EF582E43400F583EFF0050E80D49000A7
:101B330010E4F0A3E4F02290002574AAF0900026AC
:101B43007488F09000277407F0900028E0FFEF54AA
:101B5300FEFF90001CE0FEEF4EFF900028EFF09098
:101B63000029E0FFEF54FEFF90001DE0FEEF4EFF63
:101B7300900029EFF07B017A007925900027E0FFA0
:101B8300EFFD7C001219A290002BEFF022C0E0C001
:101B9300F0C083C082C0D075D000C000C001C002B5
:101BA300C003C004C005C006C007E59D30E105536E
:101BB3009DFDD204E59D30E00E539DFE7B017A002E
:101BC300792CAD9F1211C8D007D006D005D004D010
:101BD30003D002D001D000D0D0D082D083D0F0D0B7
:101BE300E032900090EBF0A3EAF0A3E9F0900093C9
:101BF300E4F0900093E0FF7E00C3EF9407EE64806F
:101C030094805028900090E0FBA3E0FAA3E0F990C1
:101C13000093E0FF8F8275830012005EFF8F9F3079
:101C230004FDC204900093E004F080C6222094FDDA
:101C330090004A1203DB000000007FE87E037D0072
:101C43007C0090004AE0F8A3E0F9A3E0FAA3E0FBEC
:101C5300D3120398502180E27FE87E037D007C004D
:101C630090004AE0F8A3E0F9A3E0FAA3E0FBC31273
:101C7300039870C62280C3229000B3EFF09000B3A4
:101C8300E0FFEF1204A11C9C001CA3011CAA021C70
:101C9300B1031CB70400001CC2902048E493FF2248
:101CA300902049E493FF2290204AE493FF227F008F
:101CB300121FD12290203AE493FE740193FF227FF6
:101CC30000227F01121F59EF603F20051B9000B4D3
:101CD300E0FF8FD69000B4E014F09000B4E0FF7EF4
:101CE30000EF4E7024D205229000B4E0FF8FD6900F
:101CF30000B4E004F09000B4E0FF7E00D3EF9464FE
:101D0300EE648094804002C205229000A1EBF0A310
:101D1300EAF0A3E9F09000A1E0FBA3E0FAA3E0F965
:101D230075820275830012019DFFAEF09000A1E061
:101D3300FBA3E0FAA3E0F9120172FDACF0EDB507E5
:101D430009ECB506057E007F0122E47E007F0022B8
:101D53009000B0EFF09000B0E0FFEF75F008A4241E
:101D63004EF582E43420F583E493FF7E00EF7F0099
:101D7300FE9000B0E0FDED75F008A4244FF582E479
:101D83003420F583E493FD7C00EF2DFFEE3CFE222F
:101D9300900098EFF0900098E0FF121D5390009987
:101DA300EEF0A3EFF0900099E0FEA3E0FFEF7803DD
:101DB300C333CE33CED8F9FF7C007D0A1200D19015
:101DC3000099EEF0A3EFF0900099E0FEA3E0FF226C
:101DD300C0E0C0F0C083C082C0D075D000C000C0D6
:101DE30001C002C003C004C005C006C0071217C368
:101DF300D007D006D005D004D003D002D001D00044
:101E0300D0D0D082D083D0F0D0E032E4FFEFC395BE
:101E130029501A12099EE4F0740B2F12094FE4F0B3
:101E2300A3F074082F1209F6E4F00F80E0E4F52420
:101E3300F523F522F52190005E74FFF0E490006134
:101E4300F0A3F0C20122E4900065F0900051F090FD
:101E53000051E0FFC395295013120FF9900051E090
:101E6300FF120509900051E004F080E3AF24AE2394
:101E7300AD22AC212275D10075D23F75D40075D344
:101E83006475D50075D60075D72875DC0075DD003F
:101E930075DE0075DF1443D28043A902D2AF2275E9
:101EA3008E07438901758A20758CD1C28CD2A9D241
:101EB3008C75C90075C80075CBD175CA20C2CAD24A
:101EC300ADD2CAD2AF22121EEF12003E121E7812FA
:101ED30000031216409000861203DB000025807F6A
:101EE3000C7E001213F012152580FB22759AFF75E4
:101EF3009B007591FF75920075A1FF75A20075D9BE
:101F0300FF75DA00439ADC4391C043A18C43D903A4
:101F130022E4FE90000FE0547FF0D2EE90000FE039
:101F2300548070111215B743CF100EEEC39464742E
:101F330080948040E7229000AEEFF090004FE0FFE6
:101F4300EF60109000AEE0FFEF600590004FE4F00B
:101F53007F01227F00229000AFEFF090004EE0FF60
:101F6300EF60109000AFE0FFEF600590004EE4F0EB
:101F73007F01227F0022E4FFEFC395295016120947
:101F830045E0FCA3E0FD900001120967ECF0A3ED2E
:101F9300F00F80E42212201190001CEFF090001C3F
:101FA300E0FFEF600790001C7401F02290001CE436
:101FB300F0229000B1EFF09000B1E0FFEF75F00870
:101FC300A4244BF582E43420F583E493FF229000AC
:101FD300B2EFF09000B2E0FF740C2FF582E434000E
:101FE300F583E0FF2290202EE493FE740193FF22F9
:101FF300902028E493FE740193FF22900000E0FFF9
:10200300EFC313FF225391EF439202D291223094F4
:10201300037F01227F00227F0122D2EE22A201222E
:10202300D201220000000000000005000A0BB800E6
:10203300C80064000200000000000400000001FF6B
:10204300FFFFFF0014023204083B0502590A0A206D
:00000001FF
