:1000000002146D02000E121E7B2232021282B28096
:0100100032BD
:06001300021EECB2853272
:06001B0002001EC28F323C
:06002300021FCE7F012246
:06002B00021507D2EE22CF
:06003300022044A203229A
:06003B00021B0AD20322A1
:0300430002000AAE
:03004B00021FDDB4
:0300530002001692
:10005B00021D80BB010CE58229F582E5833AF5830D
:10006B00E0225006E92582F8E622BBFE06E925824E
:10007B00F8E222E58229F582E5833AF583E49322BF
:10008B00BB010689828A83F0225002F722BBFE0154
:10009B00F322F8BB010DE58229F582E5833AF5835E
:1000AB00E8F0225006E92582C8F622BBFE05E925B9
:1000BB0082C8F222EF8DF0A4A8F0CF8CF0A428CE4A
:1000CB008DF0A42EFE22BC000BBE0029EF8DF08418
:1000DB00FFADF022E4CCF875F008EF2FFFEE33FE06
:1000EB00EC33FCEE9DEC984005FCEE9DFE0FD5F03D
:1000FB00E9E4CEFD22EDF8F5F0EE8420D21CFEAD46
:10010B00F075F008EF2FFFED33FD4007985006D543
:10011B00F0F222C398FD0FD5F0EA22C2D5EC30E7FE
:10012B0009B2D5E4C39DFDE49CFCEE30E715B2D5D6
:10013B00E4C39FFFE49EFE1200D1C3E49DFDE49C4B
:10014B00FC80031200D130D507C3E49FFFE49EFE71
:10015B0022C5F0F8A3E028F0C5F0F8E5821582700F
:10016B00021583E038F022A3F8E0C5F025F0F0E5A6
:10017B0082158270021583E0C838F0E822BB010AB1
:10018B0089828A83E0F5F0A3E022500687F009E725
:10019B001922BBFE07E3F5F009E3192289828A8352
:1001AB00E493F5F074019322BB0110E58229F582EB
:1001BB00E5833AF583E0F5F0A3E0225009E92582C7
:1001CB00F886F008E622BBFE0AE92582F8E2F5F094
:1001DB0008E222E5832AF583E993F5F0A3E993225C
:1001EB00BB010DC58229C582C5833AC58302015C5B
:1001FB005011C58229F808E5F026F618F5F0E582CE
:10020B0036F622BBFE11C58229F808E225F0F5F07F
:10021B00F218E23582F222F8E58229F582E5832A8B
:10022B00F58374019325F0F5F0E4933822BB010AB2
:10023B0089828A83F0E5F0A3F0225006F709A7F034
:10024B001922BBFE06F3E5F009F31922F8BB0111E5
:10025B00E58229F582E5833AF583E8F0E5F0A3F032
:10026B00225009E92582C8F608A6F022BBFE09E94F
:10027B002582C8F2E5F008F222E88FF0A4CC8BF0CF
:10028B00A42CFCE98EF0A42CFC8AF0EDA42CFCEA47
:10029B008EF0A4CDA8F08BF0A42DCC3825F0FDE981
:1002AB008FF0A42CCD35F0FCEB8EF0A4FEA9F0EB77
:1002BB008FF0A4CFC5F02ECD39FEE43CFCEAA42D83
:1002CB00CE35F0FDE43CFC2275F008758200EF2F73
:1002DB00FFEE33FECD33CDCC33CCC58233C5829B01
:1002EB00ED9AEC99E58298400CF582EE9BFEED9A27
:1002FB00FDEC99FC0FD5F0D6E4CEFBE4CDFAE4CCC3
:10030B00F9A88222B800C1B90059BA002DEC8BF0C4
:10031B0084CFCECDFCE5F0CBF97818EF2FFFEE3381
:10032B00FEED33FDEC33FCEB33FB10D703994004AC
:10033B00EB99FB0FD8E5E4F9FA227818EF2FFFEED3
:10034B0033FEED33FDEC33FCC933C910D7059BE904
:10035B009A4007EC9BFCE99AF90FD8E0E4C9FAE460
:10036B00CCFB2275F010EF2FFFEE33FEED33FDCCFF
:10037B0033CCC833C810D7079BEC9AE899400AEDE9
:10038B009BFDEC9AFCE899F80FD5F0DAE4CDFBE491
:10039B00CCFAE4C8F922CFF4CFCEF4CECDF4CDCC49
:1003AB00F4CC22EB9FF5F0EA9E42F0E99D42F0E897
:1003BB009C45F022E8600FECC313FCED13FDEE132C
:1003CB00FEEF13FFD8F122E8600FEFC333FFEE33DC
:1003DB00FEED33FDEC33FCD8F122ECF0A3EDF0A3F2
:1003EB00EEF0A3EFF022A8828583F0D083D08212A7
:1003FB000408120408120408120408E473E493A31B
:10040B00C583C5F0C583C8C582C8F0A3C583C5F035
:10041B00C583C8C582C822A42582F582E5F0358341
:10042B00F58322BB010DE58229F582E5833AF5833D
:10043B000204EF5007E92582F80204DDBBFE07E951
:10044B002582F8020501E58229F582E5833AF583D9
:10045B00020513BB0120E58229F582E5833AF5837A
:10046B00D0F0D0E0F8D0E0F9D0E0FAD0E0FBE8C073
:10047B00E0C0F00204F85018E92582F8D083D0824E
:10048B00D0E0F9D0E0FAD0E0FBC082C0830204E6F2
:10049B00BBFE18E92582F8D083D082D0E0F9D0E0FA
:1004AB00FAD0E0FBC082C08302050A22D083D0823F
:1004BB00F8E4937012740193700DA3A393F8740175
:1004CB0093F5828883E4737402936860EFA3A3A30C
:1004DB0080DFE6FB08E6FA08E6F922EBF608EAF617
:1004EB0008E9F622E0FBA3E0FAA3E0F922EBF0A384
:1004FB00EAF0A3E9F022E2FB08E2FA08E2F922EBC8
:10050B00F208EAF208E9F222E493FB740193FA741D
:10051B000293F92290005BEFF0E4900063F09000FF
:10052B005BE090000112094F120AA290005CF0A34D
:10053B00EFF0E47F01FEFDFC90005BE0F9F81203A5
:10054B00D28F298E288D278C26AF01121C87900005
:10055B0061EEF0A3EFF01209A24005120AB6800576
:10056B00E490005EF090005EE0640160030206D14F
:10057B0090005BE0FF24071209B7E0C394FA748084
:10058B00948050061209B4E004F0120A79FCE4FBE3
:10059B00FAF9F8C31203AE60030206BE900000E046
:1005AB00900060F0120026EF6030E490005EF0A344
:1005BB00F01209EF50181209B4E0C394017480943F
:1005CB0080400690005EE004F0120A9B80E3120A62
:1005DB00224007900060E0240FF090005BE02407BE
:1005EB001209B7120AD650030206BEE490005EF061
:1005FB00122016EF705E90005FF01209EF50229000
:10060B00005BE06F6016121FE990005FE024071299
:10061B0009B7E0C39F4005120AB68005120A9B80FA
:10062B00D9120026EF3395E04F706390005EE070B7
:10063B005DA3F01209EF505690005BE06F60101253
:10064B001FE990005F120A09E0C39F4002803C1231
:10065B000A9B80DF120026EF3395E04F703090003D
:10066B0060F090005FF01209EF50181209B4E0C36C
:10067B009402748094804006900060E004F0120AAB
:10068B009B80E3900060120A254003120AB690008B
:10069B005EE064017002D202E5254529FFE52445A1
:1006AB0028FEE5234527FDE52245268F258E248D43
:1006BB0023F52290005BE0FF240B120965E4F0A305
:1006CB001209FC0208F490005BE0FF121CC79000BB
:1006DB005CE0FCA3E0FDD31209964008120A06E089
:1006EB0004F0800B90008CE004F0120A06E4F01288
:1006FB000AACC3E49FFBE49EFAC3ED9BEA12099894
:10070B004066D31209A35060120A43F583E4120921
:10071B00FC1209CD600302084890005CE0FEA3E0E8
:10072B00FF90005BE09000091209E9EE8FF01201D7
:10073B005C12200012098440091209BFE475F00114
:10074B008019122000C3E49FFFE49EFE120984402F
:10075B00030208481209BF74FFF5F012015C12097D
:10076B007AE4F0A3F0020848120AACC3E49FFFE45A
:10077B001209A04003020803120A431209F8F58379
:10078B00E4F0740B2FF582E43400F583E0FD902048
:10079B0074E493FFED8FF084E5F0704B902075932C
:1007AB00FEEF8EF0A4FFC3ED120A9190005BE040C8
:1007BB0010120A48F583E4F0D20390001604F0807F
:1007CB00261209C4C083C082E0FEA3E0FF90001292
:1007DB00E0A2E713FD3395E0FCC3EF9DFFEE9CD049
:1007EB0082D083F0A3EFF090005BE0FF900085E0F8
:1007FB006F704A74FFF08045120AACD31209A34004
:10080B003C90005BE0120A481209CD7030120ABD11
:10081B001209F8F583E064207023120ABDF583E416
:10082B00F0900012E0A2E713A2E713FD3395E0FC72
:10083B0075F002EF1209C7EC8DF012015C120A7908
:10084B004D4E4F7003020900900061E0FCA3E0FDE8
:10085B00AE047802CEA2E713CE13D8F8FFC3ED9FF8
:10086B00FFEC1209A040030208F9120A14E004F08D
:10087B00122021900060EFF0E490005FF01209EF7E
:10088B0050181209B4E0C394017480948040069010
:10089B00005EE004F0120A9B80E3120A22400890EB
:1008AB000000E0900060F090005BE0FB120A181271
:1008BB000AD6500302094A74152B120A1AE4F0AF38
:1008CB0029AE28AD27AC261203A1E5255FFFE52451
:1008DB005EFEE5235DFDE5225C8F258E248D23F5E1
:1008EB002274072BF582E43400F583E4F022120A1C
:1008FB0014E014F02290005BE024071209B71209F0
:10090B00CF700890005BE0FF121722E52A14FF90CE
:10091B00005BE06F702990008CE0C3952A4020E4C7
:10092B0090005FF01209EF500E1209B4E060031251
:10093B000AB6120A9B80ED90005EE07002C20222A2
:10094B00E0900013FF75F002120422E0FCA3E0FD1F
:10095B00EF90000575F002020422F582E43400F5F5
:10096B0083E4F074152FF582E43400F583E4F09002
:10097B000009EF75F00202042290005BE075F002B3
:10098B00900009120422E0FCA3E0C39FEE6480F800
:10099B00EC648098229EFEC390005DE09FEE648025
:1009AB00F890005CE06480982274072FF582E434A1
:1009BB0000F5832290005BE0FF75F00290000102CE
:1009CB000422F583E4F0FFFEFDFCAB25AA24A9234A
:1009DB00A822C30203AE90005CE0FD90001375F0FB
:1009EB000202042290005FE0FFC3952A22F583E008
:1009FB0004F074032FF582E434002290005BE024B2
:100A0B0008F582E43400F5832290005BE02415F5B1
:100A1B0082E43400F5832290005EE0C3940374807B
:100A2B009480227D0A1200D1AD037C001200BF908E
:100A3B000064E0FD9000012290005BE0FF240BF5C9
:100A4B0082E4340022E0FCA3E0FD75F002EF90009D
:100A5B0013120422ECF0A3EDF0227E00900086E04E
:100A6B00FCA3E0FD1200BF8EE78FE67F0222E52597
:100A7B005529FFE5245528FEE5235527FDE522558D
:100A8B002622A4FFE0C39FE5F06480F874809822CF
:100A9B0090005FE004F022E0FEA3E0C39DFFEE9C1C
:100AAB0022900012E0FF3395E0FE2290005E74016D
:100ABB00F02290005BE0FF2403F582E434002290E7
:100ACB000012E0FB3395E0FAFEEB22E0FF900060B2
:100ADB00E0FEEFC39E229FEE6480F8EA64809822CA
:100AEB0090005AE0FF900084E0229000FAEBF0A314
:100AFB00EAF0A3E9F07B017A007917C003C002C0CA
:100B0B00019000FAE0FBA3E0FAA3E0F990002BE0E0
:100B1B00FF7E00E92FF9EA3EFA9000BAEBF0A3EA68
:100B2B00F0A3E9F0D001D002D0031210DCEF4E702D
:100B3B0003020C8590002BE0FFEF1204B70B55005E
:100B4B000B82010BB00200000BDE9000FAE0FBA35E
:100B5B00E0FAA3E0F990002BE0FF8F82758300127F
:100B6B00005EFFEFB4AA0890002BE004F0808690A3
:100B7B00002BE4F0020B009000FAE0FBA3E0FAA3D9
:100B8B00E0F990002BE0FF8F8275830012005EFF6F
:100B9B00EFB4550990002BE004F0020B0090002BF2
:100BAB00E4F0020B009000FAE0FBA3E0FAA3E0F9FB
:100BBB0090002BE0FF8F8275830012005EFFEFB475
:100BCB00070990002BE004F0020B0090002BE4F0DF
:100BDB00020B0090002BE004F09000FAE0FBA3E086
:100BEB00FAA3E0F975820275830012005EFF900094
:100BFB002BE0FEEEC39F500E90002BE0FFEFD39443
:100C0B00075003020B009000FAE0FBA3E0FAA3E00D
:100C1B00F9C003C002C0019000FAE0FBA3E0FAA305
:100C2B00E0F975820275830012005EFFEFFD7C0018
:100C3B00D001D002D00312189590002BE0FEEEFDF0
:100C4B007C00ED24FFFDEC34FFFC9000FAE0FBA3ED
:100C5B00E0FAA3E0F98D828C8312005EFEEFB506FD
:100C6B000E9000FAE0FBA3E0FAA3E0F912190C9046
:100C7B00002BE4F0020B00020B002275100075181C
:100C8B00007517007516007515001200365003021B
:100C9B000DAA121DF68F148E138D128C11750F0069
:100CAB00E50FC3952A504DAF14AE13AD12AC1178AE
:100CBB00011203BF8F148E138D128C1130D7317F1D
:100CCB00017E007D007C00AB0F74042BF582E434B5
:100CDB0000F583E0F9A8011203D2E5184FF518E5EA
:100CEB00174EF517E5164DF516E5154CF5150510D0
:100CFB00050F80ACE510C394024016D202E510C379
:100D0B009403400512003E8008122016EF6002C2C9
:100D1B00022002307F007E007D007C00AB18AA17FA
:100D2B00A916A815C31203AE6010900011E004F0D1
:100D3B007006900010E004F08024900010E4F0A303
:100D4B00E4F0801A90000EE004F0700690000DE0C5
:100D5B0004F0751800751700751600751500121F35
:100D6B00F5900010E0FCA3E0FDC3ED9FEC9E400B63
:100D7B0012003E900010E4F0A3E4F090000DE0FEB2
:100D8B00A3E0FFD3EF942CEE9401402012003E9091
:100D9B0000167401F090000DE4F0A3E4F0800D90C8
:100DAB00205AE493FE740193FF120DC0AF18AE17D7
:100DBB00AD16AC152290005AEFF090008A120A255E
:100DCB00403EE4F0900016E0702B90005BF090003A
:100DDB005BE0C3952A501EE0FF1209E6E0FCA3E09E
:100DEB00FD75F002EF1209C7ECF0A3EDF090005B7C
:100DFB00E004F080D9121DBBC203E4900016F02270
:100E0B00900084E004F0120AEBB50708121FBCE453
:100E1B00900085F0120AEBD39F5003020EF1E49081
:100E2B00005BF090005BE0C3952A507A12094B12DD
:100E3B000AA2AD07FC900016E0702E120ACA7802C7
:100E4B00C333CE33CED8F9FFD3ED1209964046E427
:100E5B009BFFE49AFEEF7802C333CE33CED8F9FF73
:100E6B00C3ED120996502E803D120ACA7803C33384
:100E7B00CE33CED8F9FFD3ED1209964018E49BFF81
:100E8B00E49AFEEF7803C333CE33CED8F9FFC3ED2C
:100E9B00120996401190005BE0FF120FEC90005B83
:100EAB00E004F0020E2E90005BE0B52A0690008560
:100EBB00E004F090005AE0FD75F008900084120AEF
:100ECB008D4023E4F0C20290008AE004F0ED75F04F
:100EDB0004900085120A8D400DE490008AF0121FD9
:100EEB004D121DBBC2032290008DEBF0A3EAF0A3C1
:100EFB00E9F0900090ECF0A3EDF07B007A00790024
:100F0B00C003C002C00190008DE0FBA3E0FAA3E098
:100F1B00F9D082D083D0E06B7008E965827003EA68
:100F2B0065837003020FEB900092E0FBA3E0FAA342
:100F3B00E0F9C003C002C00190008DE0FBA3E0FA12
:100F4B00A3E0F975820875830012045E90008DE0B2
:100F5B00FBA3E0FAA3E0F975820875830012042E57
:100F6B00C003C002C0017B007A007900D082D0831D
:100F7B00D0E06B7008E965827003EA65836061906D
:100F8B000090E0FEA3E0FF90008DE0FBA3E0FAA34E
:100F9B00E0F9758204758300EE8FF0120257900012
:100FAB008DE0FBA3E0FAA3E0F9E475F00012023840
:100FBB0090008DE0FBA3E0FAA3E0F9758202758344
:100FCB0000E475F00012025790008DE0FBA3E0FAED
:100FDB00A3E0F9758206758300E475F000120257E1
:100FEB002290005CEFF0F912094B120AA290005DFF
:100FFB00F0A3EFF0AF01121C87AD07AC0690005DBC
:10100B00E0FEA3E0FFD39DEC6480F8EE6480985083
:10101B0014C3E49DFBE49CFAC3EF9BEA6480F8EEF7
:10102B00648098500E90005CE0FF12095C120A502D
:10103B000210D0ECA2E713FEED13FF90005DE0FA77
:10104B00A3E0FBD3120AE15016ECA2E713FEED135B
:10105B00FFC3E49FFFE49EFEC3EB120AE150231291
:10106B0009E1E0FAA3E0FBEAC313FEEB13FFC3EBCA
:10107B009FFBEA9EFAED12095CE0C313FEA3E0139B
:10108B0080321209E1E0FAA3E0FBAE027803CEC393
:10109B0013CE13D8F9FFC3EB9FFBEA9EFA75F00250
:1010AB00ED900005120422E0FEA3E07803CEC313FB
:1010BB00CE13D8F92BFFEA3EFE90005CE01209E656
:1010CB00EEF0A3EFF090005C12094BECF0A3EDF007
:1010DB00229000B7EBF0A3EAF0A3E9F09000B7E0A1
:1010EB00FBA3E0FAA3E0F9121BFDEF4E6006E47ED2
:1010FB00007F00229000B7E0FBA3E0FAA3E0F975B4
:10110B00820875830012042EC003C002C001900038
:10111B00B7E0FBA3E0FAA3E0F97582027583001236
:10112B0001B3FFAEF0D001D002D0038F828E8312B9
:10113B00005EFF9000BAE0FBA3E0FAA3E0F9EF1228
:10114B00008B9000B7E0FBA3E0FAA3E0F9758202F5
:10115B007583001201B3FFAEF0EF2401FFEE3400F4
:10116B00FE9000B7E0FBA3E0FAA3E0F975820475EB
:10117B0083001201B3FDACF01201269000B7E0FB27
:10118B00A3E0FAA3E0F9758202758300EC8DF012EF
:10119B0002579000B7E0FBA3E0FAA3E0F9758206D3
:1011AB0075830074FF75F0FF1201EB7E007F012247
:1011BB009000DEEBF0A3EAF0A3E9F09000E1EDF094
:1011CB009000DEE0FBA3E0FAA3E0F91219F3EF4E77
:1011DB006006E47E007F00229000E1E0FF9000DEDD
:1011EB00E0FBA3E0FAA3E0F9758208758300120413
:1011FB002EC003C002C0019000DEE0FBA3E0FAA307
:10120B00E0F9120188FDACF0D001D002D0038D8241
:10121B008C83EF12009D9000DEE0FBA3E0FAA3E0CD
:10122B00F97582047583001201B3FDACF09000DEFA
:10123B00E0FBA3E0FAA3E0F9120188FFAEF0EF2484
:10124B0001FFEE3400FE1201269000DEE0FBA3E06E
:10125B00FAA3E0F9EC8DF01202389000DEE0FBA36C
:10126B00E0FAA3E0F9758206758300E475F00112CC
:10127B0001EB7E007F0122C0E0C0F0C083C082C0C2
:10128B00D075D000C000C001C002C003C004C005AF
:10129B00C006C007758A20758CD1900042E0FCA374
:1012AB00E0FDA3E0FEA3E0FF7B017A00790078006C
:1012BB00EF2BFFEE3AFEED39FDEC38FC90004212BD
:1012CB0003E5900032E0FF7E00C3E49FFFE49EFE47
:1012DB00EF25E0FFEE33FE900032E0FD7C00EF2DBA
:1012EB00FFEE3CFEEF24FFFFEE3400FE90003CE4EB
:1012FB0075F00112015CADF0FCD3ED9FEC9E400E3E
:10130B0090003CE4F0A3E4F090004B7401F0D007A4
:10131B00D006D005D004D003D002D001D000D0D05D
:10132B00D082D083D0F0D0E0324100FF004200E306
:10133B0000004100E2004400500000000044004C5B
:10134B00000000004200580000C1064900220000C6
:10135B000000000000000041004B0041004A00412A
:10136B0000480044004200000000420046000041DB
:10137B00004964C10742003C000042003E000042AD
:10138B0000400000C100C1014200FD0000C1084146
:10139B0000160041008A0047002D000000000000ED
:1013AB0000C105C104470035AA88070000000041B1
:1013BB0000340041002C0041002B00004800950038
:1013CB00000000000000009000ABEEF0A3EFF05324
:1013DB00A1FC43A203438FC0759D509000ABE0FE70
:1013EB00A3E0FFE4FCFD7B407A42790F7800120208
:1013FB00849000ADE0F8A3E0F9A3E0FAA3E0FB12C0
:10140B00030F8F9E9000ABE0FEA3E0FFE4FCFD7B9F
:10141B00407A42790F78001202849000ADE0F8A375
:10142B00E0F9A3E0FAA3E0FB12030F78081203BF65
:10143B008F9543A901D2AF7B017A007917C003C006
:10144B0002C0017B017A007922900092EBF0A3EAB3
:10145B00F0A3E9F0D001D002D0037D097C00120E7D
:10146B00F22278FFE4F6D8FD9000007F007E03E4C3
:10147B00F0A3DFFCDEFA75812A0214C2021E25E4FA
:10148B0093A3F8E493A34003F68001F208DFF48002
:10149B0029E493A3F85407240CC8C333C4540F4452
:1014AB0020C8834004F456800146F6DFE4800B012C
:1014BB0002040810204080901334E47E019360BC3A
:1014CB00A3FF543F30E509541FFEE493A360010EC4
:1014DB00CF54C025E060A840B8E493A3FAE493A3EB
:1014EB00F8E493A3C8C582C8CAC583CAF0A3C8C50C
:1014FB0082C8CAC583CADFE9DEE780BEC0E0C0F0A0
:10150B00C083C082C0D075D000C000C004C005C06D
:10151B0006C007C2CF900047E004F070069000466B
:10152B00E004F090003EE475F00112015CAFF0FEB8
:10153B00D3EF94C7EE9400400E90003EE4F0A3E48A
:10154B00F090004A7401F0900032E0FF7E009000B2
:10155B0040E475F00112015CADF0FCD3ED9FEC9E05
:10156B00400E900040E4F0A3E4F09000487401F0CA
:10157B00D007D006D005D004D000D0D0D082D083F5
:10158B00D0F0D0E032C2AF75FEC1AFFFD2AFEF5497
:10159B0030FD7C0070047918801CED64104C7004D5
:1015AB00790C8012ED64204C700479068008ED6490
:1015BB00304C70027902E924FA601724FA601F2478
:1015CB00F460272416702E90005CE4F0A37496F060
:1015DB00802590005C7401F0A374C2F08019900018
:1015EB005C7403F0A37484F0800D90005C7407F0BE
:1015FB00A304F08002E4F990005CE07002A3E060C9
:10160B000C90005C74FFF5F012015C80EA229000F4
:10161B000FE0FFEF30E77B90000FE0FFEF547FFF11
:10162B0090000FEFF0120C869000C21203E59000B1
:10163B00C2E0FCA3E0FDA3E0FEA3E0FFEF5401FF3B
:10164B00EE5400FEED5400FDEC5400FCEC4D4E4FFF
:10165B006004D2058019300516C205900034E0FFF6
:10166B00EFB401047F0080027F01900034EFF01291
:10167B001AB47B017A00792D120AF5121F6C7F01C7
:10168B00121F0DEF60097B017A007935121C431292
:10169B00002E2275FE8543FF20D2AFC203E49000DB
:1016AB008BF090000FF0121A5BE4FF121BB3EF24C8
:1016BB0001FDE433FC7E0B7FB81200D1900086EE67
:1016CB00F0A3EFF0E4FF121F89120A65121BB3EFB0
:1016DB00C454F0FEC006E4FF121BB3D0E02FF5E1BB
:1016EB007F03121BB3E5E254804FF5E27F04121B1C
:1016FB00B3EF6008E5E254804480F5E27F01121BF2
:10170B00B38FE3121DBB43A910900004E04480F596
:10171B00E812181C021F4D900064EFF0121FA590E9
:10172B000065EFF0121797900087E025E0FF90001F
:10173B0086E033FE7C00120A2E12095FE0FAA3E06A
:10174B00C39FEA9E5009900065E0603F14802D1204
:10175B001797900086E0FEA3E0FF7C007D07120048
:10176B00BF120A2E12097EE0FAA3E0D39FEA9E4035
:10177B001A900065E0FF647E6011EF04FF740C2D7E
:10178B00F582E43400F583EFF0D20322900064E09D
:10179B00FF121F89EFFB22C20990008BE012095C3C
:1017AB00E5E5F0A3E5E4F090008BE004F0E0C395F1
:1017BB002A400BE4F090000FE04480F08002D20945
:1017CB007F02121BB3EFC454F0F5E190008BE0FFE6
:1017DB00121F89120A65121BB3EFC454F0FEC00628
:1017EB00E4FF121BB3D0E02FF5E190008BE0FF126A
:1017FB001FA5E5E254804FF5E290008BE02404F541
:10180B0082E43400F583E04480F5E8300902D2EE3F
:10181B0022902076E49390005AF0121EC7E49000B9
:10182B005BF090005BE0FFC3952A5021E0FE1209AC
:10183B005CE0FCA3E0FD75F002EE1209C7ECF0A32F
:10184B00EDF012172290005BE004F080D590005A67
:10185B00E0FF14F0EF70C3121FBC12200B90005A64
:10186B00EFF0121EC7E490005BF090005BE0FFC34B
:10187B00952A500B120FEC90005BE004F080EB907C
:10188B00005AE0FF14F0EF70D9229000A4EBF0A304
:10189B00EAF0A3E9F09000A7ECF0A3EDF09000AA1A
:1018AB00E4F09000A97401F09000A7E0FEA3E0FF24
:1018BB00EF24FFFFEE34FFFE9000A9E0FD7C00C398
:1018CB00ED9FEE6480F8EC64809850279000A4E0C4
:1018DB00FBA3E0FAA3E0F99000A9E0FF8F827583E8
:1018EB000012005EFF9000AAE02FF09000A9E00428
:1018FB00F080B59000AAE0FFEFF404FFEF54FFFF78
:10190B00229000F7EBF0A3EAF0A3E9F09000F7E0E8
:10191B00FBA3E0FAA3E0F975820475830012005E65
:10192B00FFEF540FFFEF700775D600C20480439092
:10193B0000F7E0FBA3E0FAA3E0F9758204758300DE
:10194B0012005EFFEF540FFFEFB4010775D664C2B0
:10195B0004801F9000F7E0FBA3E0FAA3E0F9758287
:10196B000475830012005EFFEF540FFFEFB4020209
:10197B00D2047F002290009DEBF0A3EAF0A3E9F0E4
:10198B009000A0ECF0A3EDF09000A3E4F09000A287
:10199B007401F09000A0E0FEA3E0FFEF24FFFFEE48
:1019AB0034FFFE9000A2E0FD7C00C3ED9FEE64804F
:1019BB00F8EC648098502790009DE0FBA3E0FAA31D
:1019CB00E0F99000A2E0FF8F8275830012005EFFAA
:1019DB009000A3E02FF09000A2E004F080B59000FF
:1019EB00A3E0FFEFF404FF229000EEEBF0A3EAF08C
:1019FB00A3E9F09000EEE0FBA3E0FAA3E0F9758217
:101A0B00047583001201B3FDACF09000EEE0FBA374
:101A1B00E0FAA3E0F9120188FFAEF0EF2401FFEE2C
:101A2B003400FE1201269000EEE0FBA3E0FAA3E0E7
:101A3B00F97582027583001201B3FFAEF0EDB507A5
:101A4B0009ECB506057E007F0122E47E007F0022B3
:101A5B00902050E493FE740193FF900000EFF09000
:101A6B00206AE493FE740193FF900012EFF0121BB7
:101A7B005F750E00E50EC3952A5025AF0EEF75F07E
:101A8B0008A42470F582E43420F583E493FFAE0EB2
:101A9B00740C2EF582E43400F583EFF0050E80D440
:101AAB00900010E4F0A3E4F02290003574AAF090BB
:101ABB0000367488F09000377407F0900038E0FF20
:101ACB00EF54FEFF900034E0FEEF4EFF900038EF36
:101ADB00F0900038E0FFEF54FDFF90002CE0FEEF9C
:101AEB004EFF900038EFF07B017A0079359000378C
:101AFB00E0FFEFFD7C0012198090003BEFF022C05D
:101B0B00E0C0F0C083C082C0D075D000C000C0015F
:101B1B00C002C003C004C005C006C007E59D30E18C
:101B2B0005539DFDD206E59D30E00E539DFE7B01D6
:101B3B007A007917AD9F1211BBD007D006D005D014
:101B4B0004D003D002D001D000D0D0D082D083D02B
:101B5B00F0D0E032750800750900750D01750C00A9
:101B6B00750B00750A00750800E508C3941F503407
:101B7B00AF0DAE0CAD0BAC0A78011203BF8F0D8EFF
:101B8B000C8D0B8C0A30D718AF0974042FF582E437
:101B9B003400F583E508F00509E509C39401500409
:101BAB00050880C585092A22900107EFF0900107EF
:101BBB00E0FFEF1204B71BD4001BDB011BE2021B7F
:101BCB00E9031BEF0400001BFA90206CE493FF2247
:101BDB0090206DE493FF2290206EE493FF227F0010
:101BEB00121FA52290205EE493FE740193FF227FC7
:101BFB0000229000F1EBF0A3EAF0A3E9F09000F1E2
:101C0B00E0FBA3E0FAA3E0F97582027583001201F1
:101C1B00B3FFAEF09000F1E0FBA3E0FAA3E0F91202
:101C2B000188FDACF0EDB50709ECB506057E007F2C
:101C3B000122E47E007F00229000D6EBF0A3EAF0B5
:101C4B00A3E9F09000D9E4F09000D9E0FFEFC39442
:101C5B000750289000D6E0FBA3E0FAA3E0F9900030
:101C6B00D9E0FF8F8275830012005EFF8F9F3006D5
:101C7B00FDC2069000D9E004F080CD22900104EF64
:101C8B00F0900104E0FFEF75F008A42472F582E4F4
:101C9B003420F583E493FF7E00EF7F00FE90010478
:101CAB00E0FDED75F008A42473F582E43420F58390
:101CBB00E493FD7C00EF2DFFEE3CFE229000E8EF5D
:101CCB00F09000E8E0FF121C879000E9EEF0A3EF24
:101CDB00F09000E9E0FEA3E0FFEF7803C333CE33CF
:101CEB00CED8F9FF7C007D0A1200D19000E9EEF00E
:101CFB00A3EFF09000E9E0FEA3E0FF222094FD901B
:101D0B000046E4F0A3E4F0900046E0FEA3E0FFD32E
:101D1B00EF94E8EE64809483501680EB900046E0DD
:101D2B00FEA3E0FFEFB4E8DFEEB403DB800280D765
:101D3B002094037F01227F00227F01121F2DEF6071
:101D4B0033200718900049E0FF8FD6900049E0142C
:101D5B00F0900049E0FFEF701BD20722900049E0A2
:101D6B00FF8FD6900049E004F0900049E0FFEFB4FC
:101D7B006402C20722C0E0C0F0C083C082C0D0752D
:101D8B00D000C000C001C002C003C004C005C00623
:101D9B00C0071217A2D007D006D005D004D003D0AD
:101DAB0002D001D000D0D0D082D083D0F0D0E0329E
:101DBB00E4FFEFC3952A501A1209B4E4F0740B2F09
:101DCB00120965E4F0A3F074082F120A0CE4F00F6B
:101DDB0080E0E4F525F524F523F52290008574FFCA
:101DEB00F0E4900088F0A3F0C20322E490008CF0A2
:101DFB0090005AF090005AE0FFC3952A5013120F2F
:101E0B00EC90005AE0FF12051F90005AE004F0809E
:101E1B00E3AF25AE24AD23AC2222121EA212000684
:101E2B00121E5112203D12169E9000AD1203F100AE
:101E3B000025807F0C7E001213D21216193004FA83
:101E4B00121D4480F52275D10075D23F75D40075F3
:101E5B00D36475D50075D60075D72875DC0075DD94
:101E6B000075DE0075DF1443D28043A902D2AF2286
:101E7B00758E07438901758A20758CD1C28CD2A9C6
:101E8B00D28C75C90075C80075CBD175CA20C2CA72
:101E9B00D2ADD2CAD2AF22759AFF759B007591FF56
:101EAB0075920075A1FF75A20075D9FF75DA004315
:101EBB009ADC4391C043A18C43D90322E4FE9000EA
:101ECB000FE0547FF0D2EE90000FE05480701112AF
:101EDB00159043CF100EEEC394647480948040E74A
:101EEB0022C0E0C083C082B2812096069000FF74AE
:101EFB0010F02097069000FF7420F0D082D083D092
:101F0B00E032900102EFF090004AE0FFEF6010909A
:101F1B000102E0FFEF600590004AE4F07F01227FB1
:101F2B000022900103EFF0900048E0FFEF6010906B
:101F3B000103E0FFEF6005900048E4F07F01227F92
:101F4B000022E4FFEFC3952A501612095BE0FCA3B5
:101F5B00E0FD90000112097DECF0A3EDF00F80E4A1
:101F6B002212203490002CEFF090002CE0FFEF6059
:101F7B000790002C7402F02290002CE4F0229001C8
:101F8B0005EFF0900105E0FFEF75F008A4246FF565
:101F9B0082E43420F583E493FF22900106EFF09066
:101FAB000106E0FF740C2FF582E43400F583E0FFAB
:101FBB0022E4FFEFC3952A500912095B120A500F56
:101FCB0080F122309904C299D200309804C298D281
:101FDB000132C0E0E5CE20E602B2A0D0E0329000A4
:101FEB0000E0FFEF75F00384FF22902054E493FE92
:101FFB00740193FF22902058E493FE740193FF2207
:10200B00902052E493FE740193FF2290204CE493B2
:10201B00FE740193FF22900000E0FFEFC313FF2239
:10202B005391EF439202D291223094037F01227F8E
:10203B00002212202B121D072253ADDFD2083200D3
:10204B0000000000000005000A0BB800C800640087
:10205B000200000000000400000001FFFFFFFF0072
:0C206B0014023204083C0502290A0A2075
:00000001FF
